{
  "_format": "hh-sol-artifact-1",
  "contractName": "UPR",
  "sourceName": "contracts/token/UPR.sol",
  "abi": [
    {
      "inputs": [],
      "stateMutability": "nonpayable",
      "type": "constructor"
    },
    {
      "anonymous": false,
      "inputs": [
        {
          "indexed": true,
          "internalType": "address",
          "name": "account",
          "type": "address"
        }
      ],
      "name": "AdminAdded",
      "type": "event"
    },
    {
      "anonymous": false,
      "inputs": [
        {
          "indexed": true,
          "internalType": "address",
          "name": "account",
          "type": "address"
        }
      ],
      "name": "AdminRemoved",
      "type": "event"
    },
    {
      "anonymous": false,
      "inputs": [
        {
          "indexed": true,
          "internalType": "address",
          "name": "owner",
          "type": "address"
        },
        {
          "indexed": true,
          "internalType": "address",
          "name": "spender",
          "type": "address"
        },
        {
          "indexed": false,
          "internalType": "uint256",
          "name": "value",
          "type": "uint256"
        }
      ],
      "name": "Approval",
      "type": "event"
    },
    {
      "anonymous": false,
      "inputs": [
        {
          "indexed": true,
          "internalType": "address",
          "name": "from",
          "type": "address"
        },
        {
          "indexed": true,
          "internalType": "address",
          "name": "to",
          "type": "address"
        },
        {
          "indexed": false,
          "internalType": "uint256",
          "name": "value",
          "type": "uint256"
        }
      ],
      "name": "Transfer",
      "type": "event"
    },
    {
      "inputs": [],
      "name": "INITIAL_SUPPLY",
      "outputs": [
        {
          "internalType": "uint256",
          "name": "",
          "type": "uint256"
        }
      ],
      "stateMutability": "view",
      "type": "function"
    },
    {
      "inputs": [
        {
          "internalType": "address",
          "name": "account",
          "type": "address"
        }
      ],
      "name": "addAdmin",
      "outputs": [],
      "stateMutability": "nonpayable",
      "type": "function"
    },
    {
      "inputs": [
        {
          "internalType": "address",
          "name": "owner",
          "type": "address"
        },
        {
          "internalType": "address",
          "name": "spender",
          "type": "address"
        }
      ],
      "name": "allowance",
      "outputs": [
        {
          "internalType": "uint256",
          "name": "",
          "type": "uint256"
        }
      ],
      "stateMutability": "view",
      "type": "function"
    },
    {
      "inputs": [
        {
          "internalType": "address",
          "name": "spender",
          "type": "address"
        },
        {
          "internalType": "uint256",
          "name": "amount",
          "type": "uint256"
        }
      ],
      "name": "approve",
      "outputs": [
        {
          "internalType": "bool",
          "name": "",
          "type": "bool"
        }
      ],
      "stateMutability": "nonpayable",
      "type": "function"
    },
    {
      "inputs": [
        {
          "internalType": "address",
          "name": "account",
          "type": "address"
        }
      ],
      "name": "balanceOf",
      "outputs": [
        {
          "internalType": "uint256",
          "name": "",
          "type": "uint256"
        }
      ],
      "stateMutability": "view",
      "type": "function"
    },
    {
      "inputs": [
        {
          "internalType": "address",
          "name": "from",
          "type": "address"
        },
        {
          "internalType": "uint256",
          "name": "value",
          "type": "uint256"
        }
      ],
      "name": "burn",
      "outputs": [
        {
          "internalType": "bool",
          "name": "",
          "type": "bool"
        }
      ],
      "stateMutability": "nonpayable",
      "type": "function"
    },
    {
      "inputs": [],
      "name": "decimals",
      "outputs": [
        {
          "internalType": "uint8",
          "name": "",
          "type": "uint8"
        }
      ],
      "stateMutability": "view",
      "type": "function"
    },
    {
      "inputs": [
        {
          "internalType": "address",
          "name": "spender",
          "type": "address"
        },
        {
          "internalType": "uint256",
          "name": "subtractedValue",
          "type": "uint256"
        }
      ],
      "name": "decreaseAllowance",
      "outputs": [
        {
          "internalType": "bool",
          "name": "",
          "type": "bool"
        }
      ],
      "stateMutability": "nonpayable",
      "type": "function"
    },
    {
      "inputs": [],
      "name": "getAdmins",
      "outputs": [
        {
          "internalType": "address[]",
          "name": "",
          "type": "address[]"
        }
      ],
      "stateMutability": "view",
      "type": "function"
    },
    {
      "inputs": [
        {
          "internalType": "address",
          "name": "spender",
          "type": "address"
        },
        {
          "internalType": "uint256",
          "name": "addedValue",
          "type": "uint256"
        }
      ],
      "name": "increaseAllowance",
      "outputs": [
        {
          "internalType": "bool",
          "name": "",
          "type": "bool"
        }
      ],
      "stateMutability": "nonpayable",
      "type": "function"
    },
    {
      "inputs": [
        {
          "internalType": "address",
          "name": "account",
          "type": "address"
        }
      ],
      "name": "isAdmin",
      "outputs": [
        {
          "internalType": "bool",
          "name": "",
          "type": "bool"
        }
      ],
      "stateMutability": "view",
      "type": "function"
    },
    {
      "inputs": [
        {
          "internalType": "address",
          "name": "to",
          "type": "address"
        },
        {
          "internalType": "uint256",
          "name": "value",
          "type": "uint256"
        }
      ],
      "name": "mint",
      "outputs": [
        {
          "internalType": "bool",
          "name": "",
          "type": "bool"
        }
      ],
      "stateMutability": "nonpayable",
      "type": "function"
    },
    {
      "inputs": [],
      "name": "name",
      "outputs": [
        {
          "internalType": "string",
          "name": "",
          "type": "string"
        }
      ],
      "stateMutability": "view",
      "type": "function"
    },
    {
      "inputs": [
        {
          "internalType": "address",
          "name": "account",
          "type": "address"
        }
      ],
      "name": "renounceAdmin",
      "outputs": [],
      "stateMutability": "nonpayable",
      "type": "function"
    },
    {
      "inputs": [],
      "name": "symbol",
      "outputs": [
        {
          "internalType": "string",
          "name": "",
          "type": "string"
        }
      ],
      "stateMutability": "view",
      "type": "function"
    },
    {
      "inputs": [],
      "name": "totalSupply",
      "outputs": [
        {
          "internalType": "uint256",
          "name": "",
          "type": "uint256"
        }
      ],
      "stateMutability": "view",
      "type": "function"
    },
    {
      "inputs": [
        {
          "internalType": "address",
          "name": "recipient",
          "type": "address"
        },
        {
          "internalType": "uint256",
          "name": "amount",
          "type": "uint256"
        }
      ],
      "name": "transfer",
      "outputs": [
        {
          "internalType": "bool",
          "name": "",
          "type": "bool"
        }
      ],
      "stateMutability": "nonpayable",
      "type": "function"
    },
    {
      "inputs": [
        {
          "internalType": "address",
          "name": "sender",
          "type": "address"
        },
        {
          "internalType": "address",
          "name": "recipient",
          "type": "address"
        },
        {
          "internalType": "uint256",
          "name": "amount",
          "type": "uint256"
        }
      ],
      "name": "transferFrom",
      "outputs": [
        {
          "internalType": "bool",
          "name": "",
          "type": "bool"
        }
      ],
      "stateMutability": "nonpayable",
      "type": "function"
    }
  ],
  "bytecode": "0x60806040523480156200001157600080fd5b506040518060400160405280601081526020016f50726f6a656374205570666972696e6760801b815250604051806040016040528060038152602001622aa82960e91b815250818181600390805190602001906200007192919062000311565b5080516200008790600490602084019062000311565b50506005805460ff1916601217905550620000a233620000c3565b50620000bd9050336b033b2e3c9fd0803ce800000062000115565b620003ad565b620000de8160066200022460201b6200090c1790919060201c565b6040516001600160a01b038216907f44d6d25963f097ad14f29f06854a01f575648a1ef82f30e562ccd3889717e33990600090a250565b6001600160a01b03821662000171576040805162461bcd60e51b815260206004820152601f60248201527f45524332303a206d696e7420746f20746865207a65726f206164647265737300604482015290519081900360640190fd5b6200017f6000838362000274565b6200019b816002546200027960201b620009581790919060201c565b6002556001600160a01b03821660009081526020818152604090912054620001ce9183906200095862000279821b17901c565b6001600160a01b0383166000818152602081815260408083209490945583518581529351929391927fddf252ad1be2c89b69c2b068fc378daa952ba7f163c4a11628f55a4df523b3ef9281900390910190a35050565b6001600160a01b0381166200023857600080fd5b620002448282620002db565b156200024f57600080fd5b6001600160a01b0316600090815260209190915260409020805460ff19166001179055565b505050565b600082820183811015620002d4576040805162461bcd60e51b815260206004820152601b60248201527f536166654d6174683a206164646974696f6e206f766572666c6f770000000000604482015290519081900360640190fd5b9392505050565b60006001600160a01b038216620002f157600080fd5b506001600160a01b03166000908152602091909152604090205460ff1690565b828054600181600116156101000203166002900490600052602060002090601f016020900481019282601f106200035457805160ff191683800117855562000384565b8280016001018555821562000384579182015b828111156200038457825182559160200191906001019062000367565b506200039292915062000396565b5090565b5b8082111562000392576000815560010162000397565b61114280620003bd6000396000f3fe608060405234801561001057600080fd5b50600436106101365760003560e01c806340c10f19116100b257806395d89b4111610081578063a457c2d711610066578063a457c2d7146103ec578063a9059cbb14610418578063dd62ed3e1461044457610136565b806395d89b41146103b85780639dc29fac146103c057610136565b806340c10f19146103185780635e1fab0f14610344578063704802751461036c57806370a082311461039257610136565b806324d7806c11610109578063313ce567116100ee578063313ce5671461027657806331ae450b1461029457806339509351146102ec57610136565b806324d7806c146102485780632ff2e9dc1461026e57610136565b806306fdde031461013b578063095ea7b3146101b857806318160ddd146101f857806323b872dd14610212575b600080fd5b610143610472565b6040805160208082528351818301528351919283929083019185019080838360005b8381101561017d578181015183820152602001610165565b50505050905090810190601f1680156101aa5780820380516001836020036101000a031916815260200191505b509250505060405180910390f35b6101e4600480360360408110156101ce57600080fd5b506001600160a01b038135169060200135610508565b604080519115158252519081900360200190f35b610200610525565b60408051918252519081900360200190f35b6101e46004803603606081101561022857600080fd5b506001600160a01b0381358116916020810135909116906040013561052b565b6101e46004803603602081101561025e57600080fd5b50356001600160a01b03166105b2565b6102006105db565b61027e6105eb565b6040805160ff9092168252519081900360200190f35b61029c6105f4565b60408051602080825283518183015283519192839290830191858101910280838360005b838110156102d85781810151838201526020016102c0565b505050509050019250505060405180910390f35b6101e46004803603604081101561030257600080fd5b506001600160a01b038135169060200135610655565b6101e46004803603604081101561032e57600080fd5b506001600160a01b0381351690602001356106a3565b61036a6004803603602081101561035a57600080fd5b50356001600160a01b03166106c4565b005b61036a6004803603602081101561038257600080fd5b50356001600160a01b03166106e6565b610200600480360360208110156103a857600080fd5b50356001600160a01b03166107c8565b6101436107e3565b6101e4600480360360408110156103d657600080fd5b506001600160a01b038135169060200135610844565b6101e46004803603604081101561040257600080fd5b506001600160a01b038135169060200135610865565b6101e46004803603604081101561042e57600080fd5b506001600160a01b0381351690602001356108cd565b6102006004803603604081101561045a57600080fd5b506001600160a01b03813581169160200135166108e1565b60038054604080516020601f60026000196101006001881615020190951694909404938401819004810282018101909252828152606093909290918301828280156104fe5780601f106104d3576101008083540402835291602001916104fe565b820191906000526020600020905b8154815290600101906020018083116104e157829003601f168201915b5050505050905090565b600061051c6105156109b2565b84846109b6565b50600192915050565b60025490565b6000610538848484610aa2565b6105a8846105446109b2565b6105a385604051806060016040528060288152602001611056602891396001600160a01b038a166000908152600160205260408120906105826109b2565b6001600160a01b031681526020810191909152604001600020549190610bfd565b6109b6565b5060019392505050565b6000816105c0600682610c94565b6105c957600080fd5b6105d4600684610c94565b9392505050565b6b033b2e3c9fd0803ce800000081565b60055460ff1690565b606060078054806020026020016040519081016040528092919081815260200182805480156104fe57602002820191906000526020600020905b81546001600160a01b0316815260019091019060200180831161062e575050505050905090565b600061051c6106626109b2565b846105a385600160006106736109b2565b6001600160a01b03908116825260208083019390935260409182016000908120918c168152925290205490610958565b6000336106b1600682610c94565b6106ba57600080fd5b6105a88484610cc9565b336106d0600682610c94565b6106d957600080fd5b6106e282610db9565b5050565b336106f2600682610c94565b6106fb57600080fd5b610706600683610c94565b61077b5761071382610dfb565b600780546001810182556000919091527fa66cc928b5edb82af9bd49922954155ab7b0942694bea4ce44661d9a8736c6880180547fffffffffffffffffffffffff0000000000000000000000000000000000000000166001600160a01b0384161790556106e2565b6040805162461bcd60e51b815260206004820152601b60248201527f74686973206163636f756e7420616c7265616479206578697374730000000000604482015290519081900360640190fd5b6001600160a01b031660009081526020819052604090205490565b60048054604080516020601f60026000196101006001881615020190951694909404938401819004810282018101909252828152606093909290918301828280156104fe5780601f106104d3576101008083540402835291602001916104fe565b600033610852600682610c94565b61085b57600080fd5b6105a88484610e3d565b600061051c6108726109b2565b846105a3856040518060600160405280602581526020016110e8602591396001600061089c6109b2565b6001600160a01b03908116825260208083019390935260409182016000908120918d16815292529020549190610bfd565b600061051c6108da6109b2565b8484610aa2565b6001600160a01b03918216600090815260016020908152604080832093909416825291909152205490565b6001600160a01b03811661091f57600080fd5b6109298282610c94565b1561093357600080fd5b6001600160a01b0316600090815260209190915260409020805460ff19166001179055565b6000828201838110156105d4576040805162461bcd60e51b815260206004820152601b60248201527f536166654d6174683a206164646974696f6e206f766572666c6f770000000000604482015290519081900360640190fd5b3390565b6001600160a01b0383166109fb5760405162461bcd60e51b81526004018080602001828103825260248152602001806110c46024913960400191505060405180910390fd5b6001600160a01b038216610a405760405162461bcd60e51b815260040180806020018281038252602281526020018061100e6022913960400191505060405180910390fd5b6001600160a01b03808416600081815260016020908152604080832094871680845294825291829020859055815185815291517f8c5be1e5ebec7d5bd14f71427d1e84f3dd0314c0f7b2291e5b200ac8c7c3b9259281900390910190a3505050565b6001600160a01b038316610ae75760405162461bcd60e51b815260040180806020018281038252602581526020018061109f6025913960400191505060405180910390fd5b6001600160a01b038216610b2c5760405162461bcd60e51b8152600401808060200182810382526023815260200180610fc96023913960400191505060405180910390fd5b610b37838383610f39565b610b7481604051806060016040528060268152602001611030602691396001600160a01b0386166000908152602081905260409020549190610bfd565b6001600160a01b038085166000908152602081905260408082209390935590841681522054610ba39082610958565b6001600160a01b038084166000818152602081815260409182902094909455805185815290519193928716927fddf252ad1be2c89b69c2b068fc378daa952ba7f163c4a11628f55a4df523b3ef92918290030190a3505050565b60008184841115610c8c5760405162461bcd60e51b81526004018080602001828103825283818151815260200191508051906020019080838360005b83811015610c51578181015183820152602001610c39565b50505050905090810190601f168015610c7e5780820380516001836020036101000a031916815260200191505b509250505060405180910390fd5b505050900390565b60006001600160a01b038216610ca957600080fd5b506001600160a01b03166000908152602091909152604090205460ff1690565b6001600160a01b038216610d24576040805162461bcd60e51b815260206004820152601f60248201527f45524332303a206d696e7420746f20746865207a65726f206164647265737300604482015290519081900360640190fd5b610d3060008383610f39565b600254610d3d9082610958565b6002556001600160a01b038216600090815260208190526040902054610d639082610958565b6001600160a01b0383166000818152602081815260408083209490945583518581529351929391927fddf252ad1be2c89b69c2b068fc378daa952ba7f163c4a11628f55a4df523b3ef9281900390910190a35050565b610dc4600682610f3e565b6040516001600160a01b038216907fa3b62bc36326052d97ea62d63c3d60308ed4c3ea8ac079dd8499f1e9c4f80c0f90600090a250565b610e0660068261090c565b6040516001600160a01b038216907f44d6d25963f097ad14f29f06854a01f575648a1ef82f30e562ccd3889717e33990600090a250565b6001600160a01b038216610e825760405162461bcd60e51b815260040180806020018281038252602181526020018061107e6021913960400191505060405180910390fd5b610e8e82600083610f39565b610ecb81604051806060016040528060228152602001610fec602291396001600160a01b0385166000908152602081905260409020549190610bfd565b6001600160a01b038316600090815260208190526040902055600254610ef19082610f86565b6002556040805182815290516000916001600160a01b038516917fddf252ad1be2c89b69c2b068fc378daa952ba7f163c4a11628f55a4df523b3ef9181900360200190a35050565b505050565b6001600160a01b038116610f5157600080fd5b610f5b8282610c94565b610f6457600080fd5b6001600160a01b0316600090815260209190915260409020805460ff19169055565b60006105d483836040518060400160405280601e81526020017f536166654d6174683a207375627472616374696f6e206f766572666c6f770000815250610bfd56fe45524332303a207472616e7366657220746f20746865207a65726f206164647265737345524332303a206275726e20616d6f756e7420657863656564732062616c616e636545524332303a20617070726f766520746f20746865207a65726f206164647265737345524332303a207472616e7366657220616d6f756e7420657863656564732062616c616e636545524332303a207472616e7366657220616d6f756e74206578636565647320616c6c6f77616e636545524332303a206275726e2066726f6d20746865207a65726f206164647265737345524332303a207472616e736665722066726f6d20746865207a65726f206164647265737345524332303a20617070726f76652066726f6d20746865207a65726f206164647265737345524332303a2064656372656173656420616c6c6f77616e63652062656c6f77207a65726fa2646970667358221220e4621f3fb7013ae7a98591f1a7abb3239cf9e6dc4454c55fc0f2eb759d258b1764736f6c634300060c0033",
  "linkReferences": {},
  "deployedLinkReferences": {}
}