{
  "_format": "hh-sol-artifact-1",
  "contractName": "UpfiringSwap",
  "sourceName": "contracts/UpfiringSwap.sol",
  "abi": [
    {
      "inputs": [
        {
          "internalType": "address",
          "name": "_UFR",
          "type": "address"
        },
        {
          "internalType": "address",
          "name": "_UPR",
          "type": "address"
        }
      ],
      "stateMutability": "nonpayable",
      "type": "constructor"
    },
    {
      "anonymous": false,
      "inputs": [
        {
          "indexed": false,
          "internalType": "address",
          "name": "account",
          "type": "address"
        },
        {
          "indexed": false,
          "internalType": "uint256",
          "name": "input",
          "type": "uint256"
        },
        {
          "indexed": false,
          "internalType": "uint256",
          "name": "output",
          "type": "uint256"
        }
      ],
      "name": "Swap",
      "type": "event"
    },
    {
      "anonymous": false,
      "inputs": [
        {
          "indexed": false,
          "internalType": "uint256",
          "name": "amount",
          "type": "uint256"
        }
      ],
      "name": "SwapRate",
      "type": "event"
    },
    {
      "inputs": [],
      "name": "getSwapRate",
      "outputs": [
        {
          "internalType": "uint256",
          "name": "",
          "type": "uint256"
        }
      ],
      "stateMutability": "view",
      "type": "function"
    },
    {
      "inputs": [
        {
          "internalType": "uint256",
          "name": "newRate",
          "type": "uint256"
        }
      ],
      "name": "setSwapRate",
      "outputs": [],
      "stateMutability": "nonpayable",
      "type": "function"
    },
    {
      "inputs": [
        {
          "internalType": "uint256",
          "name": "amount",
          "type": "uint256"
        }
      ],
      "name": "swap",
      "outputs": [],
      "stateMutability": "nonpayable",
      "type": "function"
    }
  ],
  "bytecode": "0x608060405234801561001057600080fd5b506040516105723803806105728339818101604052604081101561003357600080fd5b508051602090910151600180546001600160a01b039384166001600160a01b0319918216178255600280549490931693169290921790556000556104f68061007c6000396000f3fe608060405234801561001057600080fd5b50600436106100415760003560e01c8063068eb48f1461004657806394b918de14610060578063f4cde4691461007f575b600080fd5b61004e61009c565b60408051918252519081900360200190f35b61007d6004803603602081101561007657600080fd5b50356100a2565b005b61007d6004803603602081101561009557600080fd5b50356101bc565b60005490565b6001546100c79073ffffffffffffffffffffffffffffffffffffffff163330846102f7565b60008054600254604080517f40c10f19000000000000000000000000000000000000000000000000000000008152336004820152928502602484018190529051909373ffffffffffffffffffffffffffffffffffffffff909216926340c10f199260448083019360209390929083900390910190829087803b15801561014c57600080fd5b505af1158015610160573d6000803e3d6000fd5b505050506040513d602081101561017657600080fd5b5050604080513381526020810184905280820183905290517f77f92a1b6a1a11de8ca49515ad4c1fad45632dd3442167d74b90b304a3c7a7589181900360600190a15050565b600254604080517f24d7806c00000000000000000000000000000000000000000000000000000000815233600482018190529151919273ffffffffffffffffffffffffffffffffffffffff16916324d7806c916024808201926020929091908290030181600087803b15801561023157600080fd5b505af1158015610245573d6000803e3d6000fd5b505050506040513d602081101561025b57600080fd5b505161026657600080fd5b600082116102bb576040805162461bcd60e51b815260206004820152601960248201527f5377617052617465206d757374206d6f7265207468616e203000000000000000604482015290519081900360640190fd5b60008290556040805183815290517f394744b145ccbc66e40bbbb3d75779b1271ca9efbed63791c8c98b4c8c93855e9181900360200190a15050565b6040805173ffffffffffffffffffffffffffffffffffffffff85811660248301528481166044830152606480830185905283518084039091018152608490920183526020820180517bffffffffffffffffffffffffffffffffffffffffffffffffffffffff167f23b872dd0000000000000000000000000000000000000000000000000000000017815292518251600094606094938a169392918291908083835b602083106103b75780518252601f199092019160209182019101610398565b6001836020036101000a0380198251168184511680821785525050505050509050019150506000604051808303816000865af19150503d8060008114610419576040519150601f19603f3d011682016040523d82523d6000602084013e61041e565b606091505b509150915081801561044c57508051158061044c575080806020019051602081101561044957600080fd5b50515b6104875760405162461bcd60e51b81526004018080602001828103825260318152602001806104906031913960400191505060405180910390fd5b50505050505056fe5472616e7366657248656c7065723a3a7472616e7366657246726f6d3a207472616e7366657246726f6d206661696c6564a26469706673582212201c3c66bc1a3a4d98aa6dac01e178ddffdf0457a17c0e4ee641fc8fc96361f32f64736f6c634300060c0033",
  "linkReferences": {},
  "deployedLinkReferences": {}
}